{
  "contractName": "Faucet",
  "abi": [
    {
      "anonymous": false,
      "inputs": [
        {
          "indexed": true,
          "internalType": "address",
          "name": "funder",
          "type": "address"
        },
        {
          "indexed": false,
          "internalType": "uint256",
          "name": "amount",
          "type": "uint256"
        }
      ],
      "name": "FundsAdded",
      "type": "event"
    },
    {
      "anonymous": false,
      "inputs": [
        {
          "indexed": true,
          "internalType": "address",
          "name": "requester",
          "type": "address"
        },
        {
          "indexed": false,
          "internalType": "uint256",
          "name": "amount",
          "type": "uint256"
        }
      ],
      "name": "FundsWithdrawn",
      "type": "event"
    },
    {
      "inputs": [],
      "name": "numOfFunders",
      "outputs": [
        {
          "internalType": "uint256",
          "name": "",
          "type": "uint256"
        }
      ],
      "stateMutability": "view",
      "type": "function",
      "constant": true
    },
    {
      "inputs": [],
      "name": "owner",
      "outputs": [
        {
          "internalType": "address",
          "name": "",
          "type": "address"
        }
      ],
      "stateMutability": "view",
      "type": "function",
      "constant": true
    },
    {
      "inputs": [],
      "name": "testNum",
      "outputs": [
        {
          "internalType": "uint256",
          "name": "",
          "type": "uint256"
        }
      ],
      "stateMutability": "view",
      "type": "function",
      "constant": true
    },
    {
      "stateMutability": "payable",
      "type": "receive",
      "payable": true
    },
    {
      "inputs": [],
      "name": "emitLog",
      "outputs": [
        {
          "internalType": "bytes32",
          "name": "",
          "type": "bytes32"
        }
      ],
      "stateMutability": "pure",
      "type": "function",
      "constant": true
    },
    {
      "inputs": [],
      "name": "addFunds",
      "outputs": [],
      "stateMutability": "payable",
      "type": "function",
      "payable": true
    },
    {
      "inputs": [],
      "name": "test1",
      "outputs": [],
      "stateMutability": "nonpayable",
      "type": "function"
    },
    {
      "inputs": [],
      "name": "test2",
      "outputs": [],
      "stateMutability": "nonpayable",
      "type": "function"
    },
    {
      "inputs": [
        {
          "internalType": "uint256",
          "name": "withdrawAmount",
          "type": "uint256"
        }
      ],
      "name": "withdraw",
      "outputs": [],
      "stateMutability": "nonpayable",
      "type": "function"
    },
    {
      "inputs": [],
      "name": "getAllFunders",
      "outputs": [
        {
          "internalType": "address[]",
          "name": "",
          "type": "address[]"
        }
      ],
      "stateMutability": "view",
      "type": "function",
      "constant": true
    },
    {
      "inputs": [
        {
          "internalType": "uint256",
          "name": "index",
          "type": "uint256"
        }
      ],
      "name": "getFunderAtIndex",
      "outputs": [
        {
          "internalType": "address",
          "name": "",
          "type": "address"
        }
      ],
      "stateMutability": "view",
      "type": "function",
      "constant": true
    }
  ],
  "bytecode": "0x608060405234801561001057600080fd5b50336000806101000a81548173ffffffffffffffffffffffffffffffffffffffff021916908373ffffffffffffffffffffffffffffffffffffffff1602179055506103e8600181905550610b6d806100696000396000f3fe6080604052600436106100955760003560e01c8063a26759cb11610059578063a26759cb1461014e578063ae28f1ed14610158578063af7f2c9b14610183578063c218deca146101ae578063f42c13bf146101eb5761009c565b80632e1a7d4d146100a157806366e41cb7146100ca5780636b59084d146100e15780636fbbb55d146100f85780638da5cb5b146101235761009c565b3661009c57005b600080fd5b3480156100ad57600080fd5b506100c860048036038101906100c39190610765565b610216565b005b3480156100d657600080fd5b506100df6102fb565b005b3480156100ed57600080fd5b506100f661038b565b005b34801561010457600080fd5b5061010d61041b565b60405161011a9190610882565b60405180910390f35b34801561012f57600080fd5b50610138610515565b60405161014591906108b3565b60405180910390f35b610156610539565b005b34801561016457600080fd5b5061016d6106b0565b60405161017a91906108dd565b60405180910390f35b34801561018f57600080fd5b506101986106b6565b6040516101a591906108dd565b60405180910390f35b3480156101ba57600080fd5b506101d560048036038101906101d09190610765565b6106bc565b6040516101e291906108b3565b60405180910390f35b3480156101f757600080fd5b506102006106f9565b60405161020d9190610911565b60405180910390f35b8067016345785d8a0000811115610262576040517f08c379a0000000000000000000000000000000000000000000000000000000008152600401610259906109af565b60405180910390fd5b3373ffffffffffffffffffffffffffffffffffffffff166108fc839081150290604051600060405180830381858888f193505050501580156102a8573d6000803e3d6000fd5b503373ffffffffffffffffffffffffffffffffffffffff167feaff4b37086828766ad3268786972c0cd24259d4c87a80f9d3963a3c3d999b0d836040516102ef91906108dd565b60405180910390a25050565b60008054906101000a900473ffffffffffffffffffffffffffffffffffffffff1673ffffffffffffffffffffffffffffffffffffffff163373ffffffffffffffffffffffffffffffffffffffff1614610389576040517f08c379a000000000000000000000000000000000000000000000000000000000815260040161038090610a41565b60405180910390fd5b565b60008054906101000a900473ffffffffffffffffffffffffffffffffffffffff1673ffffffffffffffffffffffffffffffffffffffff163373ffffffffffffffffffffffffffffffffffffffff1614610419576040517f08c379a000000000000000000000000000000000000000000000000000000000815260040161041090610a41565b60405180910390fd5b565b6060600060025467ffffffffffffffff81111561043b5761043a610a61565b5b6040519080825280602002602001820160405280156104695781602001602082028036833780820191505090505b50905060005b60025481101561050d576004600082815260200190815260200160002060009054906101000a900473ffffffffffffffffffffffffffffffffffffffff168282815181106104c0576104bf610a90565b5b602002602001019073ffffffffffffffffffffffffffffffffffffffff16908173ffffffffffffffffffffffffffffffffffffffff1681525050808061050590610aee565b91505061046f565b508091505090565b60008054906101000a900473ffffffffffffffffffffffffffffffffffffffff1681565b6000339050610546610721565b50600360008273ffffffffffffffffffffffffffffffffffffffff1673ffffffffffffffffffffffffffffffffffffffff16815260200190815260200160002060009054906101000a900460ff1661065f576000600260008154809291906105ad90610aee565b9190505590506001600360008473ffffffffffffffffffffffffffffffffffffffff1673ffffffffffffffffffffffffffffffffffffffff16815260200190815260200160002060006101000a81548160ff021916908315150217905550816004600083815260200190815260200160002060006101000a81548173ffffffffffffffffffffffffffffffffffffffff021916908373ffffffffffffffffffffffffffffffffffffffff160217905550505b8073ffffffffffffffffffffffffffffffffffffffff167f8fe10ae416f22f5e5220b0018a6c1d4ff534d6aa3a471f2a20cb7747fe63e5b9346040516106a591906108dd565b60405180910390a250565b60015481565b60025481565b60006004600083815260200190815260200160002060009054906101000a900473ffffffffffffffffffffffffffffffffffffffff169050919050565b60007f48656c6c6f20576f726c64000000000000000000000000000000000000000000905090565b60006064905090565b600080fd5b6000819050919050565b6107428161072f565b811461074d57600080fd5b50565b60008135905061075f81610739565b92915050565b60006020828403121561077b5761077a61072a565b5b600061078984828501610750565b91505092915050565b600081519050919050565b600082825260208201905092915050565b6000819050602082019050919050565b600073ffffffffffffffffffffffffffffffffffffffff82169050919050565b60006107e9826107be565b9050919050565b6107f9816107de565b82525050565b600061080b83836107f0565b60208301905092915050565b6000602082019050919050565b600061082f82610792565b610839818561079d565b9350610844836107ae565b8060005b8381101561087557815161085c88826107ff565b975061086783610817565b925050600181019050610848565b5085935050505092915050565b6000602082019050818103600083015261089c8184610824565b905092915050565b6108ad816107de565b82525050565b60006020820190506108c860008301846108a4565b92915050565b6108d78161072f565b82525050565b60006020820190506108f260008301846108ce565b92915050565b6000819050919050565b61090b816108f8565b82525050565b60006020820190506109266000830184610902565b92915050565b600082825260208201905092915050565b7f43616e6e6f74207769746864726177206d6f7265207468616e20302e3120657460008201527f6865720000000000000000000000000000000000000000000000000000000000602082015250565b600061099960238361092c565b91506109a48261093d565b604082019050919050565b600060208201905081810360008301526109c88161098c565b9050919050565b7f4f6e6c79206f776e65722063616e2063616c6c20746869732066756e6374696f60008201527f6e00000000000000000000000000000000000000000000000000000000000000602082015250565b6000610a2b60218361092c565b9150610a36826109cf565b604082019050919050565b60006020820190508181036000830152610a5a81610a1e565b9050919050565b7f4e487b7100000000000000000000000000000000000000000000000000000000600052604160045260246000fd5b7f4e487b7100000000000000000000000000000000000000000000000000000000600052603260045260246000fd5b7f4e487b7100000000000000000000000000000000000000000000000000000000600052601160045260246000fd5b6000610af98261072f565b91507fffffffffffffffffffffffffffffffffffffffffffffffffffffffffffffffff821415610b2c57610b2b610abf565b5b60018201905091905056fea26469706673582212200444e72ea654eb5ca995377f128f4f66abd11329670e1edd3e3f95bc2e5f247364736f6c63430008090033",
  "immutableReferences": {},
  "source": "// SPDX-License-Identifier: MIT\npragma solidity >=0.4.22 <0.9.0;\nimport \"./Owned.sol\";\nimport \"./Logger.sol\";\nimport \"./IFaucet.sol\";\n\ncontract Faucet is Owned, Logger, IFaucet {\n\n    uint public numOfFunders;\n\n      event FundsAdded(address indexed funder, uint amount);\n    event FundsWithdrawn(address indexed requester, uint amount);\n\n    mapping(address => bool) private funders;\n    mapping(uint => address) private lutFunders;\n\n    \n    modifier limitWithdraw(uint withdrawAmount) {\n        \n        require(\n            withdrawAmount <= 100000000000000000, \n            \"Cannot withdraw more than 0.1 ether\"\n        );\n        _;\n    }\n\n    receive() external payable {}\n\n    function emitLog() public override pure returns(bytes32) {\n        return \"Hello World\";\n    }\n    \n    function addFunds() override external payable {\n        address funder = msg.sender;\n\n        test3();\n        \n        if (!funders[funder]) {\n            uint index = numOfFunders++;\n            funders[funder] = true;\n            lutFunders[index] = funder;\n        }\n\n          emit FundsAdded(funder, msg.value);\n    }\n\n    function test1() external onlyOwner {\n        // Some managing stuff that only the owner can access\n    }\n\n    function test2() external onlyOwner {\n        // Some managing stuff that only the owner can access\n    }\n    \n\n    function withdraw(uint withdrawAmount) override external limitWithdraw(withdrawAmount) {\n        payable(msg.sender).transfer(withdrawAmount); \n\n         emit FundsWithdrawn(msg.sender, withdrawAmount);\n    }\n\n    function getAllFunders() external view returns (address[] memory) {\n        address[] memory _funders = new address[](numOfFunders);\n\n        for (uint i=0; i < numOfFunders; i++) {\n            _funders[i] = lutFunders[i];\n        }\n\n        return _funders;\n\n    }\n\n    function getFunderAtIndex(uint index) external view returns(address) {\n        return lutFunders[index];\n    } \n\n}\n\n\n\n// const instance = await Faucet.deployed()\n\n// instance.addFunds({from: accounts[0], value: \"2000000000000000000\"})\n// instance.addFunds({from: accounts[1], value: \"2000000000000000000\"})\n\n// instance.withdraw(\"100000000000000000\", {from: accounts[1]})\n\n// instance.getFunderAtIndex(0)\n// The numOfFunders iteration is changing the key value for each additional funder\n// instance.getAllFunders()\n",
  "sourcePath": "/Users/vipulbhatia/my_code/web_projects/blockchain/faucet-webpack-5-main/contracts/FaucetContract.sol",
  "compiler": {
    "name": "solc",
    "version": "0.8.9+commit.e5eed63a.Emscripten.clang"
  },
  "schemaVersion": "3.4.16",
  "updatedAt": "2024-02-25T11:40:29.157Z",
  "networkType": "ethereum",
  "devdoc": {
    "kind": "dev",
    "methods": {},
    "version": 1
  },
  "userdoc": {
    "kind": "user",
    "methods": {},
    "version": 1
  }
}