{
  "contractName": "Faucet",
  "abi": [
    {
      "inputs": [],
      "name": "numOfFunders",
      "outputs": [
        {
          "internalType": "uint256",
          "name": "",
          "type": "uint256"
        }
      ],
      "stateMutability": "view",
      "type": "function"
    },
    {
      "inputs": [],
      "name": "owner",
      "outputs": [
        {
          "internalType": "address",
          "name": "",
          "type": "address"
        }
      ],
      "stateMutability": "view",
      "type": "function"
    },
    {
      "inputs": [],
      "name": "testNum",
      "outputs": [
        {
          "internalType": "uint256",
          "name": "",
          "type": "uint256"
        }
      ],
      "stateMutability": "view",
      "type": "function"
    },
    {
      "stateMutability": "payable",
      "type": "receive"
    },
    {
      "inputs": [],
      "name": "emitLog",
      "outputs": [
        {
          "internalType": "bytes32",
          "name": "",
          "type": "bytes32"
        }
      ],
      "stateMutability": "pure",
      "type": "function"
    },
    {
      "inputs": [],
      "name": "addFunds",
      "outputs": [],
      "stateMutability": "payable",
      "type": "function"
    },
    {
      "inputs": [],
      "name": "test1",
      "outputs": [],
      "stateMutability": "nonpayable",
      "type": "function"
    },
    {
      "inputs": [],
      "name": "test2",
      "outputs": [],
      "stateMutability": "nonpayable",
      "type": "function"
    },
    {
      "inputs": [
        {
          "internalType": "uint256",
          "name": "withdrawAmount",
          "type": "uint256"
        }
      ],
      "name": "withdraw",
      "outputs": [],
      "stateMutability": "nonpayable",
      "type": "function"
    },
    {
      "inputs": [],
      "name": "getAllFunders",
      "outputs": [
        {
          "internalType": "address[]",
          "name": "",
          "type": "address[]"
        }
      ],
      "stateMutability": "view",
      "type": "function"
    },
    {
      "inputs": [
        {
          "internalType": "uint256",
          "name": "index",
          "type": "uint256"
        }
      ],
      "name": "getFunderAtIndex",
      "outputs": [
        {
          "internalType": "address",
          "name": "",
          "type": "address"
        }
      ],
      "stateMutability": "view",
      "type": "function"
    }
  ],
  "bytecode": "0x608060405234801561001057600080fd5b50336000806101000a81548173ffffffffffffffffffffffffffffffffffffffff021916908373ffffffffffffffffffffffffffffffffffffffff1602179055506103e8600181905550610ad1806100696000396000f3fe6080604052600436106100955760003560e01c8063a26759cb11610059578063a26759cb1461014e578063ae28f1ed14610158578063af7f2c9b14610183578063c218deca146101ae578063f42c13bf146101eb5761009c565b80632e1a7d4d146100a157806366e41cb7146100ca5780636b59084d146100e15780636fbbb55d146100f85780638da5cb5b146101235761009c565b3661009c57005b600080fd5b3480156100ad57600080fd5b506100c860048036038101906100c391906106c9565b610216565b005b3480156100d657600080fd5b506100df6102ad565b005b3480156100ed57600080fd5b506100f661033d565b005b34801561010457600080fd5b5061010d6103cd565b60405161011a91906107e6565b60405180910390f35b34801561012f57600080fd5b506101386104c7565b6040516101459190610817565b60405180910390f35b6101566104eb565b005b34801561016457600080fd5b5061016d610614565b60405161017a9190610841565b60405180910390f35b34801561018f57600080fd5b5061019861061a565b6040516101a59190610841565b60405180910390f35b3480156101ba57600080fd5b506101d560048036038101906101d091906106c9565b610620565b6040516101e29190610817565b60405180910390f35b3480156101f757600080fd5b5061020061065d565b60405161020d9190610875565b60405180910390f35b80670de0b6b3a7640000811115610262576040517f08c379a000000000000000000000000000000000000000000000000000000000815260040161025990610913565b60405180910390fd5b3373ffffffffffffffffffffffffffffffffffffffff166108fc839081150290604051600060405180830381858888f193505050501580156102a8573d6000803e3d6000fd5b505050565b60008054906101000a900473ffffffffffffffffffffffffffffffffffffffff1673ffffffffffffffffffffffffffffffffffffffff163373ffffffffffffffffffffffffffffffffffffffff161461033b576040517f08c379a0000000000000000000000000000000000000000000000000000000008152600401610332906109a5565b60405180910390fd5b565b60008054906101000a900473ffffffffffffffffffffffffffffffffffffffff1673ffffffffffffffffffffffffffffffffffffffff163373ffffffffffffffffffffffffffffffffffffffff16146103cb576040517f08c379a00000000000000000000000000000000000000000000000000000000081526004016103c2906109a5565b60405180910390fd5b565b6060600060025467ffffffffffffffff8111156103ed576103ec6109c5565b5b60405190808252806020026020018201604052801561041b5781602001602082028036833780820191505090505b50905060005b6002548110156104bf576004600082815260200190815260200160002060009054906101000a900473ffffffffffffffffffffffffffffffffffffffff16828281518110610472576104716109f4565b5b602002602001019073ffffffffffffffffffffffffffffffffffffffff16908173ffffffffffffffffffffffffffffffffffffffff168152505080806104b790610a52565b915050610421565b508091505090565b60008054906101000a900473ffffffffffffffffffffffffffffffffffffffff1681565b60003390506104f8610685565b50600360008273ffffffffffffffffffffffffffffffffffffffff1673ffffffffffffffffffffffffffffffffffffffff16815260200190815260200160002060009054906101000a900460ff166106115760006002600081548092919061055f90610a52565b9190505590506001600360008473ffffffffffffffffffffffffffffffffffffffff1673ffffffffffffffffffffffffffffffffffffffff16815260200190815260200160002060006101000a81548160ff021916908315150217905550816004600083815260200190815260200160002060006101000a81548173ffffffffffffffffffffffffffffffffffffffff021916908373ffffffffffffffffffffffffffffffffffffffff160217905550505b50565b60015481565b60025481565b60006004600083815260200190815260200160002060009054906101000a900473ffffffffffffffffffffffffffffffffffffffff169050919050565b60007f48656c6c6f20576f726c64000000000000000000000000000000000000000000905090565b60006064905090565b600080fd5b6000819050919050565b6106a681610693565b81146106b157600080fd5b50565b6000813590506106c38161069d565b92915050565b6000602082840312156106df576106de61068e565b5b60006106ed848285016106b4565b91505092915050565b600081519050919050565b600082825260208201905092915050565b6000819050602082019050919050565b600073ffffffffffffffffffffffffffffffffffffffff82169050919050565b600061074d82610722565b9050919050565b61075d81610742565b82525050565b600061076f8383610754565b60208301905092915050565b6000602082019050919050565b6000610793826106f6565b61079d8185610701565b93506107a883610712565b8060005b838110156107d95781516107c08882610763565b97506107cb8361077b565b9250506001810190506107ac565b5085935050505092915050565b600060208201905081810360008301526108008184610788565b905092915050565b61081181610742565b82525050565b600060208201905061082c6000830184610808565b92915050565b61083b81610693565b82525050565b60006020820190506108566000830184610832565b92915050565b6000819050919050565b61086f8161085c565b82525050565b600060208201905061088a6000830184610866565b92915050565b600082825260208201905092915050565b7f43616e6e6f74207769746864726177206d6f7265207468616e2031206574686560008201527f7200000000000000000000000000000000000000000000000000000000000000602082015250565b60006108fd602183610890565b9150610908826108a1565b604082019050919050565b6000602082019050818103600083015261092c816108f0565b9050919050565b7f4f6e6c79206f776e65722063616e2063616c6c20746869732066756e6374696f60008201527f6e00000000000000000000000000000000000000000000000000000000000000602082015250565b600061098f602183610890565b915061099a82610933565b604082019050919050565b600060208201905081810360008301526109be81610982565b9050919050565b7f4e487b7100000000000000000000000000000000000000000000000000000000600052604160045260246000fd5b7f4e487b7100000000000000000000000000000000000000000000000000000000600052603260045260246000fd5b7f4e487b7100000000000000000000000000000000000000000000000000000000600052601160045260246000fd5b6000610a5d82610693565b91507fffffffffffffffffffffffffffffffffffffffffffffffffffffffffffffffff821415610a9057610a8f610a23565b5b60018201905091905056fea26469706673582212207d71d82343b539c7426c8a672c7fcc644b76ef27dd80d44df91816709f517cf964736f6c63430008090033",
  "immutableReferences": {},
  "source": "// SPDX-License-Identifier: MIT\npragma solidity >=0.4.22 <0.9.0;\nimport \"./Owned.sol\";\nimport \"./Logger.sol\";\nimport \"./IFaucet.sol\";\n\ncontract Faucet is Owned, Logger, IFaucet {\n\n    uint public numOfFunders;\n\n\n    mapping(address => bool) private funders;\n    mapping(uint => address) private lutFunders;\n\n    \n    modifier limitWithdraw(uint withdrawAmount) {\n        \n        require(\n            withdrawAmount <= 1000000000000000000, \n            \"Cannot withdraw more than 1 ether\"\n        );\n        _;\n    }\n\n    receive() external payable {}\n\n    function emitLog() public override pure returns(bytes32) {\n        return \"Hello World\";\n    }\n    \n    function addFunds() override external payable {\n        address funder = msg.sender;\n\n        test3();\n        \n        if (!funders[funder]) {\n            uint index = numOfFunders++;\n            funders[funder] = true;\n            lutFunders[index] = funder;\n        }\n    }\n\n    function test1() external onlyOwner {\n        // Some managing stuff that only the owner can access\n    }\n\n    function test2() external onlyOwner {\n        // Some managing stuff that only the owner can access\n    }\n\n    function withdraw(uint withdrawAmount) override external limitWithdraw(withdrawAmount) {\n        payable(msg.sender).transfer(withdrawAmount); \n    }\n\n    function getAllFunders() external view returns (address[] memory) {\n        address[] memory _funders = new address[](numOfFunders);\n\n        for (uint i=0; i < numOfFunders; i++) {\n            _funders[i] = lutFunders[i];\n        }\n\n        return _funders;\n\n    }\n\n    function getFunderAtIndex(uint index) external view returns(address) {\n        return lutFunders[index];\n    } \n\n}\n\n\n\n// const instance = await Faucet.deployed()\n\n// instance.addFunds({from: accounts[0], value: \"2000000000000000000\"})\n// instance.addFunds({from: accounts[1], value: \"2000000000000000000\"})\n\n// instance.withdraw(\"100000000000000000\", {from: accounts[1]})\n\n// instance.getFunderAtIndex(0)\n// The numOfFunders iteration is changing the key value for each additional funder\n// instance.getAllFunders()\n",
  "sourcePath": "/Users/vipulbhatia/my_code/web_projects/blockchain/faucet-webpack-5-main/contracts/FaucetContract.sol",
  "compiler": {
    "name": "solc",
    "version": "0.8.9+commit.e5eed63a.Emscripten.clang"
  },
  "schemaVersion": "3.4.16",
  "updatedAt": "2024-01-28T05:23:17.570Z",
  "devdoc": {
    "kind": "dev",
    "methods": {},
    "version": 1
  },
  "userdoc": {
    "kind": "user",
    "methods": {},
    "version": 1
  }
}